:020000040800F2
:10000000C8C90120DD150008B1130008B3130008AA
:10001000B7130008BB130008BF130008000000005E
:10002000000000000000000000000000C3130008F2
:10003000C513000800000000C7130008C91300081A
:10004000F7150008F7150008F7150008F715000860
:10005000F7150008F715000853030008F715000806
:10006000F7150008F7150008F7150008F715000840
:10007000F7150008F7150008F7150008F715000830
:10008000F7150008F7150008F7150008F715000820
:10009000F7150008F7150008F7150008F715000810
:1000A000F7150008F7150008F7150008F715000800
:1000B000F7150008F715000835150108F7150008B1
:1000C000F7150008F7150008F7150008F7150008E0
:1000D000F71500087D480008F71500082DAA00084C
:1000E000F7150008F7150008F7150008F7150008C0
:1000F000F7150008F7150008F7150008F7150008B0
:10010000F715000823D60008F7150008F7150008B2
:10011000F7150008F7150008F71500085DB400088A
:10012000F7150008F7150008F7150008F71500087F
:10013000F7150008F7150008F7150008F71500086F
:10014000F7150008F7150008F7150008F71500085F
:10015000F7150008F7150008F7150008F71500084F
:10016000F7150008F7150008F7150008F71500083F
:10017000F7150008F7150008F7150008F71500082F
:10018000F7150008F715000800F002F800F0B2F8C3
:100190000AA090E8000C82448344AAF10107DA45E2
:1001A00001D100F0A7F8AFF2090EBAE80F0013F082
:1001B000010F18BFFB1A43F001031847E85A01006A
:1001C000085B01000A444FF0000C10F8013B13F0EB
:1001D000070408BF10F8014B1D1108BF10F8015BA0
:1001E000641E05D010F8016B641E01F8016BF9D193
:1001F00013F0080F1EBF10F8014BAD1C0C1B09D1EA
:100200006D1E58BF01F801CBFAD505E014F8016B5B
:1002100001F8016B6D1EF9D59142D6D370470000ED
:100220000023002400250026103A28BF78C1FBD8FF
:10023000520728BF30C148BF0B6070476E2912F0CB
:10024000AD82702912F00F80662913F07085652940
:1002500013F06D85672913F06A856129AFF300807B
:1002600003681B0A28BF41F08001692911F08087CB
:10027000642911F07D87752911F07A876F2912F0B2
:10028000B385782911F0DB87E92912F04D85E4293F
:1002900012F04A85F52912F04785EF2912F0B08552
:1002A000F82911F0DA870368DB0928BF41F08001E3
:1002B000632912F0BC84732912F0C184E32912F07F
:1002C0006F86F32912F07486002070471FB513F073
:1002D00024FD12F0D1FD04000020002113F026FBC4
:1002E000401C60600020002113F00AFBE0601FBD8D
:1002F00010B510BD12F0F6FE1146FFF7E7FF00F053
:1003000044F812F01DFF03B4FFF7F2FF03BC04F042
:1003100055FA000030BF72B6704762B6704780F37E
:100320000888704710B50020FE4908600120FE498A
:10033000C1F8A802FB49091F08604FF47A7004F065
:100340001DFA0020F749091F08600120091D0860F7
:1003500010BD08B50A2004F011FA012002F0E4F8FB
:1003600078B1F2480088401CF04908801020022330
:10037000009008460288BE214E2009F07AF9FFF766
:10038000D1FF012002F0DBF808BD92B000201190EF
:10039000109002200F90002006904FF4A06001F012
:1003A0003DF9A82004F088F94FF4E13004F014FA84
:1003B00009F04AFA04F0C8FA04F0A6FA04F016FBB1
:1003C00004F0E8FA05F0C0FA0AF028FD4FF4E13035
:1003D0000AF05CFBD64840680390A8200399884740
:1003E00000200AF0FCFB02200AF0F9FB10F096FC5A
:1003F000D04800680122D0A103900EF0D6FCCD4871
:1004000040680122CDA103900EF0CFFC2FE04FF603
:10041000FF7005F067FA4FF47840C9490880C9A019
:1004200010210B46C822CDE9001032211E2009F010
:10043000D8F918E0C8A010210B46C822CDE9001059
:1004400046211E2009F0CDF9C82004F097F94FF697
:10045000FF705623E622462100901E2008F028FF58
:10046000C82004F08BF90CF0CDF80028E2D10BF095
:10047000E6FA0028CBD14FF47840B1490880B1A00A
:1004800010210B46C822CDE9001032211E2009F0B0
:10049000A8F9B5A010210B46C822CDE900104621CD
:1004A0001E2009F09EF9B6A010210B46C822CDE906
:1004B00000105A211E2009F094F909F070FA18E092
:1004C000B2A010210B46C822CDE900106E211E20DB
:1004D00009F087F9C82004F051F94FF6FF70922314
:1004E000EF226E2100901E2008F0E2FEC82004F0EA
:1004F00045F909F0D8FA0028E2D1A8A010210B464E
:10050000C822CDE900106E211E2009F06AF909F019
:1005100061FB18E0A4A010210B46C822CDE9001011
:1005200082211E2009F05DF9C82004F027F94FF65A
:10053000FF709223EF22822100901E2008F0B8FE67
:10054000C82004F01BF904F01CFB0028E2D199A19B
:1005500010200346C822CDE9000182211E2009F0A7
:1005600040F930E00AF09BF903900021102094A29A
:100570000346CDE900200291C8224FF4F5711E20F8
:100580000AF0BDFE1020022300904FF4F5716620A2
:10059000039A09F06EF8C82004F0F0F84FF6FF70E7
:1005A0004FF4FD73EF224FF4F5710090662008F0D0
:1005B0007FFEC82004F0E2F80F98411EC9B20F91E7
:1005C00000B904E000BF0AF06AF90028CAD100BFF0
:1005D0004FF6FF704FF4FD73EF2240F23A21009086
:1005E0001E2008F065FE79A010210B46C822CDE937
:1005F000001040F23A211E2009F0F3F8069809F0A5
:1006000047FC1F204E49088072A010210B46C822CB
:10061000CDE9001096211E2009F0E3F870A010210A
:100620000B46C822CDE90010AA211E2009F0D9F8F6
:100630006EA010210B46C822CDE90010BE211E205D
:1006400009F0CFF86CA010210B46C822CDE90010AC
:10065000E6211E2009F0C5F86CA110200346C8222F
:10066000CDE90001FA211E2009F0BBF86CA0102191
:100670000B46C822CDE900104FF487711E2009F007
:10068000B0F86CA010210B46C822CDE900104FF441
:100690009B711E2009F0A5F86CA010210B46C82202
:1006A000CDE900104FF4A5711E2009F09AF86DA055
:1006B00010210B46C822CDE900104FF4AF711E2067
:1006C00009F08FF86DA010210B464FF48C72CDE924
:1006D00000104FF4CD711E2009F083F86FA0102197
:1006E0000B464FF48C72CDE900104FF4D7711E20E9
:1006F00009F077F872A010210B46C822CDE900104E
:100700004FF4E1711E2009F06CF870A1102003462F
:100710004FF48C72CDE900014FF4F5711E2009F001
:1007200060F8E3E0A48242420080424200000020E0
:1007300048020020F8010020303A0000313A000061
:10074000360000204578706C6F7265722053544DEE
:100750003332463400000000534420436172642069
:100760004661696C6564210044485431312041443C
:100770004320416C61726D205445535400000000C9
:10078000323031392F31312F313600004E5246325E
:10079000344C3031204572726F7200004E52463236
:1007A000344C3031204F4B00444854313120457295
:1007B000726F72004448543131204F4B00000000EA
:1007C00047505253B4EDCEF33A0000004750525315
:1007D000204F4B0054656D703A202043000000000C
:1007E00048756D693A20202500000000416C617257
:1007F0006D3A302020000000414443315F434835CA
:100800005F564F4C3A3030302E3056004144433121
:100810005F4348365F564F4C3A3030302E305600EA
:10082000414443315F4348375F564F4C3A30303094
:100830002E305600414443315F4348345F414F4CB2
:100840003A20302E30303041000000004144433126
:100850005F434831345F414F4C3A20302E303030C6
:1008600041000000414443315F434831355F414F0F
:100870004C3A20302E3030304100000041444332A9
:100880005F564F4C3A3030302E3056203030302EBC
:100890003056203030302E30560000004144433274
:1008A0005F414F4C3A20302E303030412020302EE6
:1008B000303030412020302E3030304100000000F8
:1008C000416C61726D323A300000000041444333A4
:1008D0005F564F4C3A3030302E3056203030302E6C
:1008E0003056203030302E3056000000FBA1102052
:1008F00003464FF48C72CDE900014FF4FF711E20C6
:1009000008F06FFFFEA110200346C822CDE90001C8
:1009100040F212211E2008F064FF4FF47841FB489A
:100920000180FDE307A908A804F0FFF810200223C6
:1009300000909DF820209621462008F09AFE102075
:10094000022300909DF81C20AA21462008F091FE69
:100950000A2003F013FFEE48006808B9012000E008
:100960000020EB4908609DF82000EA4908709DF8D6
:100970001C0048701421052008F0C8FF05909DED6B
:10098000050AB8EE400A10EE100A13F055F99FED73
:10099000E20B53EC102BCDE900019DED000B51EC67
:1009A000100B13F04BF8CDE902019DED020B51EC59
:1009B000100B12F0D1FF09909DED090ADFEDD80A66
:1009C00020EE200AD74880ED000A9DED090ADFEDF0
:1009D000D60A20EE200A8DED090A9DED090ABCEE2B
:1009E000C00A10EE100A80B204900A21049890FB0D
:1009F000F1F080B20590002010210323CDE9001012
:100A0000E6218620059A08F07EFE0A21049890FBD4
:100A1000F1F201FB120080B2059080201021012329
:100A2000CDE90010E621A620059A08F06CFE1421FD
:100A3000062008F06BFF05909DED050AB8EE400A10
:100A400010EE100A13F0F8F89FEDB30B53EC102BD7
:100A5000CDE900019DED000B51EC100B12F0EEFF03
:100A6000CDE902019DED020B51EC100B12F074FF69
:100A700009909DED090ADFEDAA0A20EE200AA94897
:100A800080ED010A9DED090ADFEDA70A20EE200A9C
:100A90008DED090A9DED090ABCEEC00A10EE100AA0
:100AA00080B204900A21049890FBF1F080B2059086
:100AB000002010210323CDE90010FA218620059A99
:100AC00008F021FE0A21049890FBF1F201FB1200CC
:100AD00080B20590802010210123CDE90010FA2179
:100AE000A620059A08F00FFE1421072008F00EFF3B
:100AF00005909DED050AB8EE400A10EE100A13F0BD
:100B00009BF89FED850B53EC102BCDE900019DED7B
:100B1000000B51EC100B12F091FFCDE902019DED9D
:100B2000020B51EC100B12F017FF09909DED090A12
:100B3000DFED7B0A20EE200A7A4880ED020A9DED67
:100B4000090ADFED790A20EE200A8DED090A9DEDF4
:100B5000090ABCEEC00A10EE100A80B204900A2105
:100B6000049890FBF1F080B205900020102103233F
:100B7000CDE900104FF487718620059A08F0C3FD77
:100B80000A21049890FBF1F201FB120080B205905B
:100B9000802010210123CDE900104FF48771A62099
:100BA000059A08F0B0FD1421042008F0AFFE05906E
:100BB0009DED050AB8EE400A10EE100A13F03CF85D
:100BC0009FED5A0B53EC102BCDE900019DED000B6E
:100BD00051EC100B12F032FFCDE902019DED020B3A
:100BE00051EC100B12F0B8FE09909DED090A4D482A
:100BF00080ED030A9DED090ADFED4B0A20EE200A85
:100C0000BCEEC00A10EE100A80B204904FF47A7164
:100C1000049890FBF1F080B205900020102102238F
:100C2000CDE900104FF49B718620059A08F06BFD0A
:100C30004FF47A71049890FBF1F201FB120080B23C
:100C40000590802010210323CDE900104FF49B7103
:100C50009E20059A08F057FD14210E2008F056FE3C
:100C600005909DED050AB8EE400A10EE100A12F04C
:100C7000E3FF9FED2E0B53EC102BCDE900019DED12
:100C8000000B51EC100B12F0D9FECDE902019DEDE5
:100C9000020B51EC100B12F05FFE09909DED090A5A
:100CA000204880ED040A9DED090ADFED1F0A20EEC1
:100CB000200ABCEEC00A10EE100A80B204904FF475
:100CC0007A71049890FBF1F080B205900020102119
:100CD0000223CDE900104FF4A5712BE041444333CA
:100CE0005F414F4C3A20302E303030412020302EA2
:100CF000303030412020302E3030304100000000B4
:100D0000416C61726D333A30000000003600002003
:100D1000A8824242020000206666666666664A3F16
:100D20000000C8423C03002000007A44000000009C
:100D30000080703F9020059A08F0E5FC4FF47A712E
:100D4000049890FBF1F201FB120080B20590802024
:100D500010210323CDE900104FF4A571A620059AB8
:100D600008F0D1FC14210F2008F0D0FD05909DED76
:100D7000050AB8EE400A10EE100A12F05DFF1FEDF2
:100D8000150B53EC102BCDE900019DED000B51EC40
:100D9000100B12F053FECDE902019DED020B51EC58
:100DA000100B12F0D9FD09909DED090AFE4880ED67
:100DB000050A9DED090A5FED240A20EE200ABCEE2B
:100DC000C00A10EE100A80B204904FF47A710498B1
:100DD00090FBF1F080B20590002010210223CDE9B4
:100DE00000104FF4AF719020059A08F08CFC4FF47E
:100DF0007A71049890FBF1F201FB120080B2059029
:100E0000802010210323CDE900104FF4AF71A620FC
:100E1000059A08F078FCE5480178E54881700AA851
:100E200008F0BBFE002876D19DF83B00612873D105
:100E300000BF9DF83A10DE48C170002011902BE0F1
:100E4000119800EB4000801C0AA9085C00EE100A13
:100E5000B8EE400AB2EE041AC0EE010A119800EB97
:100E60004000401C095C119800EB40000AAA105C8D
:100E700000EB800001EB400000EE100AB8EEC00A63
:100E800030EE800ACB49119801EB800080ED000A1A
:100E90001198401C80B2119011980328D0DB0320D8
:100EA000119032E0119800EB4000401C0AA9085C48
:100EB00000EE100AB8EE400A1FED671AC0EE010AF4
:100EC000119800EB40010AA8405C00EE100AB8EE51
:100ED000400A70EE800A119800EB4000801C0AA9BD
:100EE000085C00EE100AB8EE400A1FED711AC0EE61
:100EF000011A30EEA10AAF49119801EB800080ED94
:100F0000000A1198401C80B2119011980628C9DB84
:100F10000020109040E0ADE190E0109800EB400020
:100F2000401C0AA9095C109800EB40000AAA105C5A
:100F300000EB800001EB4000059000201021CDE97E
:100F400000101098C0EBC000662101EBC00080B219
:100F5000032303904FF4CD71059A08F0D4FB802051
:100F60001021CDE90010109800EB4000801C0AA968
:100F7000085C03901098C0EBC000862101EBC00014
:100F800080B2012302904FF4CD71039A08F0BBFBAD
:100F90001098401C80B2109010980328BDDB0320ED
:100FA00010903CE0109800EB4000801C0AA9095CFE
:100FB000109800EB4000401C0AAA105C00EB800077
:100FC00001EB4000059000201021CDE900101098A1
:100FD00000EB40000AA9085C03901098C01E66212F
:100FE00001EB801080B2022302904FF4D771039A74
:100FF00008F089FB00201021CDE900101098C01ED8
:101000007E2101EB801080B2032303904FF4D7714F
:10101000059A08F078FB1098401C80B21090109848
:101020000628BFDB102000909DF83A0003230246FB
:101030004FF4E1710390562008F01BFB9DF83B0034
:1010400062286ED100BF9DF83A005949087100200E
:10105000119031E0119800EB4000801C0AA9085C57
:1010600000EE100AB8EE400AB2EE041AC0EE010A11
:10107000119800EB40010AA8405C00EB80004000A2
:1010800000EE100AB8EEC01A119800EB4000401CA8
:101090000AA9085C00EE100AB8EE400A31EE000A18
:1010A00030EE800A4449119801EB800080ED000A7F
:1010B0001198401C80B2119011980328CADB0320BC
:1010C000119033E0119800EB4000401C0AA9085C25
:1010D00000EE100AB8EE400A1FEDEF1AC0EE010A4A
:1010E000119800EB4000085C00EE100AB8EE400AD0
:1010F00070EE800A119800EB4000801C085C00EE46
:10110000100AB8EE400A1FEDF81AC0EE011A30EED0
:10111000A10A2949119801EB800080ED000A01E045
:101120002CE11FE11198401C80B211901198062803
:10113000C8DB002010904AE0109800EB4000401CF3
:101140000AA9095C109800EB40000AAA105C00EBA9
:10115000800001EB4000059000201021CDE9001037
:101160001098C0EBC000662101EBC00080B20323E1
:1011700003904FF4F571059A08F0C5FA802010210C
:10118000CDE90010109800EB4000801C0AA9085C13
:1011900003901098C0EBC000862101EBC00080B224
:1011A000012302900AE000003C0300200000002020
:1011B00002000020540300206C0300204FF4F5715E
:1011C000039A08F0A0FA1098401C80B21090109872
:1011D0000328B1DB032010903CE0109800EB4000A6
:1011E000801C0AA9095C109800EB4000401C0AAA68
:1011F000105C00EB800001EB400005900020102106
:10120000CDE90010109800EB40000AA9085C03909B
:101210001098C01E662101EB801080B2022302905C
:101220004FF4FF71039A08F06EFA00211020CDE907
:1012300000011098C01E7E2101EB801080B20323B4
:1012400003904FF4FF71059A08F05DFA1098401C66
:1012500080B2109010980628BFDB102000909DF8F7
:101260003A000323024640F212210390562008F070
:1012700000FA77E04FF6FF700090414800884FF485
:10128000CB7302464FF4C37103901E2008F010F890
:101290004FF478403B4908803BA01021CDE9001075
:1012A00037480088401E80B2202302464FF4C371A5
:1012B00003901E2008F095FA0020109013E09FED97
:1012C000360A3649109801EB800080ED000A9FED48
:1012D000320A3349109801EB800080ED000A109823
:1012E000401C80B2109010980328E8DB0320109077
:1012F00013E09FED2C0A2949109801EB800080ED46
:10130000000A9FED280A2649109801EB800080ED25
:10131000000A1098401C80B2109010980628E8DB54
:101320004FF6FF700090164800884FF4F3730246A2
:101330004FF4EB7103901E2007F0BAFF4FF4784092
:101340001049088010A01021CDE900100C48008839
:10135000401E80B2202302464FF4EB7103901E2002
:1013600008F03FFA10480E4B0C4A104900900698BE
:1013700008F021FE4FF4FA6003F000FAFFF7D2BA4A
:101380004C04002036000020526563656976656470
:10139000204661696C6564009AF979445403002021
:1013A0006C030020E7FB1F41020000203C030020EB
:1013B000704700BFFEE700BFFEE700BFFEE700BFCB
:1013C000FEE7704770477047704700000CB500207B
:1013D000019000907648006840F4803074490860BD
:1013E00000BF7348006800F4003000900198401C72
:1013F0000190009818B90198B0F5A04FF1D16C4850
:10140000006800F4003010B10120009001E00020DD
:1014100000900098012846D165484030006840F0AF
:1014200080506349403108606248006840F44040A1
:10143000604908605E48083000685D49083108600E
:101440000846006840F4004008600846006840F420
:10145000A05008605848091F0860081F006840F045
:101460008070091F086000BF5148006800F00070DC
:101470000028F9D040F20570504908604C48083007
:10148000006820F003004A490831086008460068F7
:1014900040F00200086000BF45480830006800F0D6
:1014A0000C000828F8D10CBD10B54548006840F480
:1014B0007000434908603E48006840F001003C4924
:1014C000086000203A4908310860394800683D4901
:1014D0000840374908603C48091D0860081F00683B
:1014E00020F48020091F0860002031490C31086079
:1014F000FFF76CFF4FF0006031498039086010BD84
:1015000070B500200022022300240221284D083556
:101510002D6805F00C0020B1042806D0082834D12D
:1015200007E02A4D2A4E356033E02A4D284E3560BB
:101530002FE01F4D2D1D2D68C5F380541C4D2D1D12
:101540002D6805F03F0154B1224DB5FBF1F5184E61
:10155000361D3668C6F3881605FB06F209E01B4DFA
:10156000B5FBF1F5124E361D3668C6F3881605FB3D
:1015700006F20F4D2D1D2D68C5F301456D1C6B0046
:10158000B2FBF3F5124E356003E0104D104E35609E
:1015900000BF00BF064D08352D68C5F303150E4E7C
:1015A000705D0B4D2D68C540094E356070BD000063
:1015B000003802400070004008544007003C0240E0
:1015C00088ED00E0FFFFF6FE103000240024F40058
:1015D0000800002000127A000C0000200948804713
:1015E00009480047FEE7FEE7FEE7FEE7FEE7FEE705
:1015F000FEE7FEE7FEE7FEE704480549054A064B1D
:1016000070470000A914000889010008C8C3012020
:10161000C8C90120C8C50120C8C5012032490143FD
:10162000324A1160704770B5002100230F22C47840
:101630001CB32E4C246804F4E064C4F5E064C4F3E5
:101640000721C1F10404E3B20A4144789C40E1B2AD
:101650008478144021430C07210E254C05786155F0
:10166000047804F01F050124AC4005786D11AD002D
:1016700005F1E025C5F8004109E0047804F01F05F4
:101680000124AC401B4D0678761145F8264070BD0C
:10169000194A0A400243154B1B1F1A60704739B1A3
:1016A000124A121D12680243104B1B1D1A6006E0FD
:1016B0000E4A121D126882430C4B1B1D1A607047A4
:1016C000042808D14FF0E021096941F004014FF0EE
:1016D000E022116107E04FF0E021096921F00401E7
:1016E0004FF0E022116170470000FA050CED00E0B8
:1016F00000E400E080E100E080FFFF1F10B5044639
:101700009848844208D10121084600F086FB002158
:10171000012000F082FB76E09348844208D1012149
:10172000022000F07AFB0021022000F076FB6AE044
:101730008E48844208D10121042000F06EFB002174
:10174000042000F06AFB5EE08948844208D1012150
:10175000082000F062FB0021082000F05EFB52E050
:101760008448844208D10121102000F056FB00215A
:10177000102000F052FB46E07F48844208D101214E
:10178000202000F04AFB0021202000F046FB3AE038
:101790007A48844208D10121402000F03EFB00211C
:1017A000402000F03AFB2EE07548844208D1012128
:1017B000802000F032FB0021802000F02EFB22E090
:1017C0007048844208D10121801500F026FB0021D9
:1017D000A01500F022FB16E06B48844208D10121DD
:1017E000401500F01AFB0021601500F016FB0AE01E
:1017F0006648844207D10121001500F00EFB00214C
:10180000201500F00AFB10BDF0B50A4600210023A8
:10181000002400BF3DE0012505FA01F3156805EA43
:1018200003049C4234D105684F000326BE40B543F3
:10183000056015794E00B540066835430560157999
:10184000012D02D01579022D16D185684F0003268F
:10185000BE40B543856055794E00B5408668354336
:101860008560456801268E40B54345604568967998
:101870008E40B6B235434560C5684F000326BE4072
:10188000B543C560D5794E00B540C6683543C560DF
:10189000491C1029BFD3F0BD4FF6FF710160002134
:1018A000017141718171C171704708B54FF4803287
:1018B0000092009A0A430092009AC261C161009AA4
:1018C000C261C2690092C269009208BD024600204E
:1018D00013690B400BB1012000E000207047014666
:1018E000086980B270470246002053690B400BB173
:1018F000012000E0002070470146486980B270472F
:1019000001837047418370470AB1018300E041833E
:1019100070474161704742694A4042617047F0B583
:10192000002300244D07ED0E02FA05F3CE1000F15E
:10193000200555F826504E07F70E0F26BE40B5433A
:10194000CF1000F1200646F82750CE1000F12005F8
:1019500055F8265045EA0304CE1000F1200545F85D
:101960002640F0BD00000240000402400008024092
:10197000000C024000100240001402400018024017
:10198000001C0240002002400024024000280240C7
:10199000F948006840F00100F74908600020F64966
:1019A00008310860F4480068F4490840F2490860CA
:1019B000F348091D0860F348EF4984310860F04896
:1019C0001038091D0860EC48006820F48020EA49BE
:1019D00008600020E8490C310860E7498C31086054
:1019E00070470021E44A921C11701146087070473C
:1019F00010B501460022002300204A11012A02D11D
:101A0000DD4C236808E0022A03D1DB4C70342368E4
:101A100002E0D94C7434236801F01F020124944081
:101A20001C400CB1012000E0002010BD38B50020A2
:101A300000900024002500BF3120FFF7D9FF0546A4
:101A40000098401C00900098B0F5A04F01D0002DE8
:101A5000F2D03120FFF7CCFF08B1012400E00024D0
:101A6000204638BD01460020C34A106820F0F80027
:101A700040EAC10010607047C34908607047002108
:101A8000BD4A703211701170012802D004280AD1A9
:101A900004E00121B84A7032117005E00521B64A10
:101AA0007032117000E000BF00BF7047B749086096
:101AB000704770B5049C41EA82150126C6EB5306B7
:101AC00045EA0645054345EA0465AB4E361D3560DB
:101AD00070BDAD4908667047820142EA0172A64BAB
:101AE00084331A607047A8498866704710B583012F
:101AF00043EA016343EA02739F4C8834236010BDBC
:101B0000A14908677047A049C86470470246002091
:101B1000994B0833186820F0EC6042EA010318433F
:101B2000954B08331860704702460020924B0833EB
:101B3000186820F0784042EA010318438E4B0833BE
:101B400018607047014600208B4A0832106820F068
:101B5000030008431060704787480830006800F0B1
:101B60000C00704701460020834A0832106820F0BC
:101B7000F000084310607047014600207E4A08329A
:101B8000106820F4E05008431060704701460020C0
:101B9000794A0832106820F4604040EAC1001060C1
:101BA0007047F0B500210022002402250026022300
:101BB000714F08373F6807F00C0121B1042905D0A7
:101BC000082937D105E0724F076036E0714F076092
:101BD00033E0694F3F1D3F68C7F38056664F3F1D96
:101BE0003F6807F03F036EB16A4FB7FBF3F7DFF8CA
:101BF00088C10CF1040CDCF800C0CCF3881C07FB96
:101C00000CF40CE0624FB7FBF3F7DFF86CC10CF19A
:101C1000040CDCF800C0CCF3881C07FB0CF4564F16
:101C20003F1D3F68C7F301477F1C7D00B4FBF5F7FC
:101C3000076002E0564F076000BF00BF4E4F0837F5
:101C40003F6807F0F0010909534F7A5C0768D740F5
:101C50004760494F08373F6807F4E051890A4E4F03
:101C60007A5C4768D7408760434F08373F6807F47E
:101C70006041490B484F7A5C4768D740C760F0BD68
:101C8000002100F44072B2F5407F0AD13A4A08328E
:101C9000116821F4F811414A02401143364A0832D2
:101CA0001160354A70321268C0F30B031A43324B8D
:101CB00070331A60704735494439086070473349BA
:101CC0004039086070473649086070470146002077
:101CD000294A8C32106820F01F004A1E1043264A01
:101CE0008C321060704701460020234A8C32106805
:101CF00020F4F8504A1E40EA02201F4A8C3210603D
:101D00007047014600201C4A8C32106820F44010B5
:101D100008431060704701460020174A8C32106853
:101D200020F4400008431060704701460020124A2A
:101D30008C32106820F44030084310607047194915
:101D40000860704739B10C4A3032126802430A4BBE
:101D500030331A6006E0084A303212688243064B7C
:101D600030331A607047F9B1034A343212680243C3
:101D7000014B34331A601CE000380240FFFFF6EAE2
:101D8000103000240030002000004742800E4742FF
:101D90000024F40000127A001C000020FFFCFF0F5A
:101DA0005C014742E01147428F4A126882438E4BE2
:101DB0001A60704739B18C4A121D126802438A4B6F
:101DC0001B1D1A6006E0884A121D12688243864B6A
:101DD0001B1D1A60704739B1834A0C3212680243E6
:101DE000814B0C331A6006E07F4A0C321268824342
:101DF0007D4B0C331A60704739B17B4A1032126840
:101E00000243794B10331A6006E0774A10321268A9
:101E10008243754B10331A60704739B1724A243AC5
:101E200012680243704B243B1A6006E06E4A243A63
:101E3000126882436C4B243B1A60704739B16A4A7E
:101E4000203A12680243684B203B1A6006E0664A5B
:101E5000203A12688243644B203B1A60704739B1C4
:101E6000614A1C3A126802435F4B1C3B1A6006E051
:101E70005D4A1C3A126882435B4B1C3B1A607047F8
:101E800039B1594A143A12680243574B143B1A604D
:101E900006E0554A143A12688243534B143B1A60C9
:101EA000704739B1504A103A126802434E4B103B0A
:101EB0001A6006E04C4A103A126882434A4B103BC3
:101EC0001A60704739B1484A1C3212680243464BC7
:101ED0001C331A6006E0444A1C3212688243424BAB
:101EE0001C331A60704739B13F4A203212680243EE
:101EF0003D4B20331A6006E03B4A20321268824391
:101F0000394B20331A60704739B1374A243212688E
:101F10000243354B24331A6006E0334A24321268F8
:101F20008243314B24331A60704739B12E4A2C3228
:101F3000126802432C4B2C331A6006E02A4A2C32DA
:101F400012688243284B2C331A60704739B1264AF5
:101F5000303212680243244B30331A6006E0224AC2
:101F6000303212688243204B30331A6070470128A8
:101F700008D11D493C31096841F008011A4A3C3238
:101F8000116007E018493C31096821F00801164A40
:101F90003C321160704739B1134A273A1278024334
:101FA000114B273B1A7006E00F4A273A12788243FA
:101FB0000D4B273B1A7070470B484030006840F0CB
:101FC0008070094940310860704701460020064A88
:101FD000283A12680A400AB1012000E00020704748
:101FE00001492639087070473438024010B504465C
:101FF000FA48844208D101211020FFF752FF002146
:102000001020FFF74EFF57E0F548844209D1012127
:102010004804FFF735FF00214FF40030FFF730FF91
:102020004AE0F048844209D101218804FFF728FFE3
:1020300000214FF48020FFF723FF3DE0EA4884426F
:1020400009D10121C804FFF71BFF00214FF4002034
:10205000FFF716FF30E0E548844209D10121080569
:10206000FFF70EFF00214FF48010FFF709FF23E078
:10207000DF48844208D101212020FFF712FF002110
:102080002020FFF70EFF17E0DA48844209D1012132
:102090008807FFF7F5FE00214FF08040FFF7F0FEC4
:1020A0000AE0D548844207D101214005FFF7E8FE48
:1020B00000216005FFF7E4FE10BD2DE9FF4705464E
:1020C0000E460024A14600BFA046B08900B100BF63
:1020D0002C8A24F44054F08804432C82AC8941F2C9
:1020E0000C608443B08831890843718908430443F4
:1020F000AC81AC8A24F44074B0890443AC82684655
:10210000FFF74FFDB548854202D0B948854202D15C
:10211000DDF80C9001E0DDF80890A88900F400409B
:1021200040B109EBC90000EB091031684900B0FB70
:10213000F1F707E009EBC90000EB091031688900ED
:10214000B0FBF1F76420B7FBF0F004012009642133
:1021500001FB1078A88900F4004040B1322000EB68
:10216000C800B0FBF1F000F00700044308E03220A3
:1021700000EB08106421B0FBF1F000F00F00044305
:102180002C81BDE8FF874FF416510160002181804A
:10219000C18001810C21418100218181704710B5EE
:1021A00002460020108A20F470600B884C8823437C
:1021B0008C882343CC8823431843108210BD002110
:1021C000018041808180C180704721B1828942F4C1
:1021D0000052828104E082894DF6FF731A408281A9
:1021E0007047028B02F47F420283028B0A43028310
:1021F000704721B1828942F40042828103E08289E2
:10220000C2F30E028281704721B1828A42F40062D9
:10221000828204E0828A4FF2FF731A408282704702
:10222000C1F308028280704701468888C0F3080025
:102230007047028A4FF6F0731A400282028A0A43FC
:102240000282704721B1828942F00202828104E059
:1022500082894FF6FD731A408281704782894FF25E
:10226000FF731A40828182890A4382817047028A01
:102270004FF6DF731A400282028A0A4302827047D5
:1022800021B1028A42F48042028204E0028A4BF6C3
:10229000FF731A4002827047818941F001018181F8
:1022A000704721B1828A42F00802828204E0828A69
:1022B0004FF6F7731A4082827047028BD2B20283C4
:1022C000028B42EA01220283704721B1828A42F0E6
:1022D0002002828204E0828A4FF6DF731A408282F3
:1022E000704721B1828A42F01002828204E0828A21
:1022F0004FF6EF731A4082827047828A4FF6FB7363
:102300001A408282828A0A438282704721B1828A7D
:1023100042F00202828204E0828A4FF6FD731A4084
:10232000828270471AB1838A0B43838202E0838AD8
:102330008B4383827047F0B50346002400260025B6
:10234000002040F66A17B94200D100BF1846C1F319
:10235000421401F01F06012707FA06F5012C01D1EE
:102360000C3004E0022C01D1103000E014301AB11E
:1023700007682F43076002E00768AF430760F0BDBE
:1023800002460020B1F5007F00D100BF13880B404A
:102390000BB1012000E00020704701F40072B2F59B
:1023A000007F00D100BFCA430280704770B502466B
:1023B000002400230025002040F66A16B14200D117
:1023C00000BFC1F3421501F01F03012606FA03F313
:1023D000012D13D19689334017E000000010014011
:1023E0000044004000480040004C004000500040C5
:1023F0000014014000780040007C0040022D02D112
:10240000168A334001E0968A33400C12012606FA00
:1024100004F41688344013B10CB1012000E0002010
:1024200070BD10B50022002340F66A14A14200D10D
:1024300000BF0A1201249440A3B2DC43048010BD03
:10244000002041490860091D0860091D0860091D38
:1024500008603E483C4914310860704700213A4901
:102460008279002A3AD00A46126803689A430B46DA
:102470001A600A1D126803689A430B1D1A600279DC
:1024800011440A6803681A430A602F4A0832126826
:1024900003689A432C4B08331A601A1D12680368AC
:1024A0009A43294B0C331A604279102A0ED11A1F15
:1024B000126803681A43244B08331A601A1D126805
:1024C00003681A43204B0C331A600DE01E49427911
:1024D00011440A6803681A430A6005E0027911444E
:1024E0000A6803689A430A6070470021016001711D
:1024F0000C21417100218171704713491031096825
:102500000143114A103211607047014600200E4A03
:10251000143212680A400AB1012000E0002070471E
:10252000094914310860704701460020064A1432F8
:1025300012680A400AB1012000E0002070470249F9
:102540001431086070470000003C0140FFFF7F002D
:1025500010B501218803FFF7A4FC00214FF480404F
:10256000FFF79FFC10BD1C49086070471B490862BB
:10257000704730B500228B071C0F0F2303FA04F2BB
:10258000154B08338C1053F824309343124C083405
:102590008D1044F8253023468C1053F824308C07D6
:1025A000240F00FA04F423430B4C08348D1044F834
:1025B000253030BD0949DC310860704708490860A2
:1025C0007047002004492031096801F4807109B185
:1025D000012000E000207047003801400000274241
:1025E0000004274230B943F2DB028100A1F1C0416F
:1025F0000A6005E043F2D2028100A1F1C0410A6005
:102600006FF07042411C8900A1F1C0410A60810055
:10261000A1F1C041C1F804217047D0E90112114372
:10262000C26811430269114342691143826911432F
:10263000C2691143026A1143426A1143826A11431B
:10264000C26A1143026B114302689200A2F1C042B8
:102650001160816808290BD101688900A1F1C0418E
:10266000096841F0400201688900A1F1C0410A6097
:10267000416B0968426B526841EA0211426B9268F1
:1026800041EA0221426B928941EA0241426B128A7D
:1026900041EA0251426B127D41EA0261426B92694A
:1026A00011430268521C9200A2F1C0421160C16A3B
:1026B000B1F5804F1BD1816B0968826B526841EA8A
:1026C0000211826B926841EA0221826B128A41EA0E
:1026D0000251826B127D41EA0261826B9269114361
:1026E00002689200A2F1C042C2F8041107E06FF044
:1026F000704201688900A1F1C041C1F8042170470E
:10270000002101600221416000218160C1600161FE
:1027100041618161C16101624FF4805141624900B0
:1027200081620021C1620163F8494163816370479E
:1027300051B18200A2F1C042126842F0010382004E
:10274000A2F1C042136009E08200A2F1C042126807
:10275000EF4B1A408300A3F1C0431A607047102862
:102760000AD118214FF020421166402151664FF0E6
:10277000FC319166D16610E01821E64A11604021D3
:102780004FF02042C2F884104FF0FC31E14A083289
:1027900011604FF02042C2F88C10704730B5002114
:1027A00000220023446844F0080485682C43C5686F
:1027B0002C4305692C43456944EA4524856944EA6C
:1027C0004531C4692468C5696D6844EA0524C56952
:1027D0002D8944EA0544C5692D7B44EA0562046AF3
:1027E0002468056A6D6844EA0524056A2D8944EA6F
:1027F0000544056A2D7B44EA05630468102C05D165
:102800004FF020442166A266E36608E0C14C2160D7
:102810004FF02044C4F88820BE4C0C34236030BDF7
:1028200010210160002141608160C160016141614E
:102830008161FC21C2691160C2695160C269916005
:10284000C269D160026A1160026A5160026A9160D5
:10285000026AD160704799B1102808D14FF0204228
:10286000126E42F004024FF020431A661DE0A94A9E
:10287000126842F004024FF02043C3F8802014E0B5
:10288000102809D14FF02042126EA14BDB1E1A40D6
:102890004FF020431A6608E09E4A12689C4BDB1EEC
:1028A0001A404FF02043C3F88020704799B1102898
:1028B00008D14FF02042126E42F040024FF0204308
:1028C0001A661DE0934A126842F040024FF020431E
:1028D000C3F8802014E0102809D14FF02042126E76
:1028E0008B4B3F3B1A404FF020431A6608E0894A61
:1028F0001268874B3F3B1A404FF02043C3F88020BB
:10290000704701460020102903D14FF02042506F3C
:1029100002E0804A14321068704718207D49203147
:10292000086000200906C1F8A4004FF0FC30794986
:1029300028310860091D0860091D0860704701689A
:1029400041F01001426841EA4221826841EA423185
:10295000704A20321160C1680968C268526841EA51
:102960000221C268128941EA0241C268127B41EA2F
:102970000261684A28321160016909680269526877
:1029800041EA02210269128941EA02410269127B8D
:1029900041EA02615F4A2C3211604169096842696B
:1029A000526841EA02214269128941EA02414269C0
:1029B000127B41EA02614FF02042C2F8B01070472A
:1029C0000021016041608160FC21C2681160C26821
:1029D0005160C2689160C268D16002691160026989
:1029E0005160026991600269D16042691160426977
:1029F0005160426991604269D160704748B1454970
:102A00002031096841F004014FF02042C2F8A010C3
:102A100009E04049203109683D4AD21E11404FF07B
:102A20002042C2F8A010704710B5F2B1102807D1AB
:102A30004FF020435B6E0B434FF02044636632E05F
:102A4000B0F5807F08D1334B1B1D1B680B434FF043
:102A50002044C4F8843026E02E4B24331B680B43FB
:102A60004FF02044C4F8A4301DE0102807D14FF0E7
:102A700020435B6E8B434FF02044636613E0B0F558
:102A8000807F08D1234B1B1D1B688B434FF02044D4
:102A9000C4F8843007E01F4B24331B688B434FF08E
:102AA0002044C4F8A43010BD10B502460020002315
:102AB000102A03D14FF02044636E09E0B2F5807F05
:102AC00003D1144C241D236802E0124C24342368E3
:102AD00003EA01040CB1012000E0002010BD102821
:102AE00007D14FF02042526E8A434FF020435A667E
:102AF00019E0B0F5807F0FD1064A121D12688A4393
:102B00004FF02043C3F884200DE00000343D01085D
:102B1000FEFF0F00800000A0234A12688A434FF096
:102B20002043C3F8A420704770B50246002000235C
:102B300000240025102A03D14FF02046736E08E0D0
:102B4000B2F5807F03D1184E203E336801E0164E67
:102B5000336803EA010403EAD10514B10DB1012081
:102B600000E0002070BD102808D14FF02042526EC6
:102B700022EAD1024FF020435A6614E0B0F5807F7C
:102B800009D1094A203A126822EAD1024FF02043C3
:102B9000C3F8842007E0044A126822EAD1024FF009
:102BA0002043C3F8A4207047A40000A010B5012161
:102BB0000802FFF776F900214FF48070FFF771F9F2
:102BC00010BD30B50246002000235068F84C20406C
:102BD0000D790C6844EA0524204350609068F54C58
:102BE0002040D1E903542C438D682C434D7944EAAD
:102BF000450420439060D06A20F470000C7D641E70
:102C0000E4B2234340EA0350D06230BD00210160AA
:102C1000017141718160C1600161012101757047DD
:102C20000021E54A1168E54A1140D0E900231A4322
:102C300083681A43C3681A431143E14AC2F8041374
:102C400070470021016041608160C160704721B11F
:102C5000826842F00102826003E0826822F0010291
:102C6000826070470A4600214168D64B19401143E3
:102C7000416070474162826270470A4600214168A4
:102C800021F01F0111434160704738B1CA490968FA
:102C900041F40001CA4AC2F8041306E0C6490968B3
:102CA00021F40001C64AC2F80413704738B1C24982
:102CB000096841F48001C24AC2F8041306E0BE4923
:102CC000096821F48001BE4AC2F804137047F0B5C8
:102CD00004460D4600200021092D11DDE068A5F114
:102CE0000A0606EB4607072606FA07F18843A5F110
:102CF0000A0606EB460603FA06F10843E0600CE01C
:102D0000206905EB4507072606FA07F1884305EB1E
:102D1000450603FA06F108432061072A0FDA606BC3
:102D2000561E06EB86071F2606FA07F18843561E35
:102D300006EB860605FA06F10843606322E00D2AD9
:102D40000FDA206BD61F06EB86071F2606FA07F15F
:102D50008843D61F06EB860605FA06F10843206372
:102D600010E0E06AA2F10D0606EB86071F2606FAC0
:102D700007F18843A2F10D0606EB860605FA06F177
:102D80000843E062F0BD816841F080418160704796
:102D9000014600208A6802F080420AB1012000E06A
:102DA0000020704721B1826842F48062826003E0B3
:102DB000826822F480628260704721B1826842F0AA
:102DC0000202826003E0826822F0020282607047A1
:102DD00010B50A4600210023416821F46041531ECA
:102DE00041EA4331416010BD21B1426842F40062C2
:102DF000426003E0426822F400624260704701468C
:102E0000C86C80B270476C48001D0068704721B1E3
:102E1000826842F48072826003E0826822F48072E9
:102E20008260704721B1826842F40072826003E0E0
:102E3000826822F400728260704738B15E49096886
:102E400041F400515E4AC2F8041306E05A49096889
:102E500021F400515A4AC2F804137047F0B50446F1
:102E60001546002000220026092911DDE068A1F1A5
:102E70000A0707EB470C072707FA0CF29043A1F16A
:102E80000A0707EB470703FA07F21043E0600CE07C
:102E9000206901EB410C072707FA0CF2904301EB84
:102EA000410703FA07F210432061A06BC0F30156FB
:102EB000EF1C06F1010CA7EB0C0707EB870C1F2793
:102EC00007FA0CF29043EF1C06F1010CA7EB0C077C
:102ED00007EB870701FA07F21043A063F0BD10B5B6
:102EE0000A4600210023816B21F44011531E41EA60
:102EF0000351816310BD08B5002300930090009B2F
:102F00000B440093009B1A6008BD0A4600218168AB
:102F100021F470211143816070470A4600218168C5
:102F200021F44011114381607047816841F48001B0
:102F300081607047014600208A6802F480020AB16D
:102F4000012000E00020704721B1426842F4806215
:102F5000426003E0426822F480624260704721B11F
:102F6000426842F48052426003E0426822F4805298
:102F70004260704708B5024600200090009201F1BF
:102F80002800009B184400900098006880B208BD9B
:102F900010B50B460021D9B2012404FA01F11AB18F
:102FA00044680C43446002E044688C43446010BDB4
:102FB000FFFEFFFCFDF7FFC004230140E030FCFFF3
:102FC00000200140FFFD3FFF0246002013680B4038
:102FD0000BB1012000E000207047CA430260704737
:102FE00070B502460020002300240B12556801260C
:102FF0008E4005EA060415681D4015B10CB101208C
:1030000000E0002070BD00220A12D3430360704725
:1030100010B50446FB48844208D101218014FEF714
:1030200040FF0021A014FEF73CFF3CE0F64884423C
:1030300008D101210014FEF723FF00212014FEF720
:103040001FFF30E0F148844208D10121C013FEF790
:1030500017FF0021E013FEF713FF24E0EC48844241
:1030600008D101214014FEF71CFF00216014FEF777
:1030700018FF18E0E748844209D101210805FEF74E
:1030800010FF00214FF48010FEF70BFF0BE0E24829
:10309000844208D101214805FEF703FF00214FF4C7
:1030A0000010FEF7FEFE10BD10B50022028802F4EB
:1030B00041520B884C8823438C882343CC8823437C
:1030C0000C8923434C8923438C892343CC89234394
:1030D0001A430280838B4FF2FF74234083830B8A51
:1030E000038210BD2DE9F04F0025022300244FF08C
:1030F000010900220026002794469046B0F81CA043
:103100004FF2400B0AEA0B0AA0F81CA04FF0020A8B
:10311000A0F820A0858BD1F808A0BAF1020F01D148
:1031200000BF82E0B1F804A0BAF1000F02D14FF065
:10313000010901E04FF00209DFF8E0A2DAF800A08F
:103140000AF4000ABAF1000F09D0DFF8D0A2DAF8C9
:1031500000A02AF4000ADFF8C4B2CBF800A0DFF820
:10316000BCA20AF17C0ADAF800A0CAF3881CDFF8D6
:10317000ACA20AF17C0ADAF800A0CAF30278DFF800
:103180009CA2AAF1040ADAF800A00AF03F07DFF8CF
:103190008CA2AAF1040ADAF800A00AF4800ABAF5AF
:1031A000800F08D1DFF878A2BAFBF7FA0AFB0CFA15
:1031B000BAFBF8F607E0DFF86CA2BAFBF7FA0AFBF5
:1031C0000CFABAFBF8F6B1F806A0BAF5007F0ED1FA
:1031D0004FEA162A0AEB8A0A4FEA4A0AD1F808B0DF
:1031E000BAFBFBFA0AF1050A1FFA8AF20FE04FEA6E
:1031F000491AB6FBFAFA0AEB8A0A4FEA4A0AD1F8E8
:1032000008B0BAFBFBFA0AF1050A1FFA8AF24FF07E
:103210000A0AB2FBFAF202F00104A2EB040ACAF3B2
:103220004F034FF6FF7A0AEA0424022B01DBFF2B3F
:1032300001DD02230024B1F806A04AEA040A4AEAA2
:10324000030AA0F820A0B1F804A0B1F80CB04AEA33
:103250000B0AB1F802B04AEA0B0AB1F800B04AEA28
:103260000B0A4AF4006A4AEA05058583BDE8F08F37
:103270000021018041808180C18001814181818163
:10328000C181072101827047002101804180818036
:10329000C1800221816000218181704721B10288B3
:1032A00042F04002028004E002884FF6BF731A40E9
:1032B0000280704721B1828B42F48062828304E0F5
:1032C000828B4FF6FF331A408283704702884FF299
:1032D000FF731A40028002880A4302807047B1F5EA
:1032E000804F04D1028842F48042028004E00288C8
:1032F0004BF6FF731A40028070474FF6FF6291420F
:1033000004D0028842F48072028004E002884FF602
:10331000FF631A400280704721B1828842F00402A4
:10332000828004E082884FF6FB731A4082807047E7
:1033300021B1828842F01002828004E082884FF638
:10334000EF731A408280704730B500220023848BCF
:103350004FF240052C40848302240484828B0C8825
:10336000B4F5007F01D00C8814B94FF4807308E0E5
:103370000C88B4F5407F03D00C88B4F5807F00D171
:1033800000238C888D892C434D882C431C4344F4A6
:1033900000642243828330BD014688897047818161
:1033A000704721B1028842F40052028004E0028892
:1033B0004DF6FF731A4002807047018841F4805136
:1033C0000180704702460020012901D0108B00E0E7
:1033D000908A70470146088A70471AB183880B4368
:1033E000838002E083888B438380704730B500245C
:1033F00000230C110125A540ABB2AAB185881D435D
:10340000858014E00030014000380040003C00405E
:10341000003401400050014000540140083802408F
:1034200000127A000024F40085889D43858030BD19
:103430000246002013890B400BB1012000E0002060
:103440007047CA4302817047F0B50246002000244D
:103450000023002501F00F070126BE40B4B20B1176
:1034600001269E40B3B2968806EA030516892640D7
:1034700016B10DB1012000E00020F0BD10B5002212
:1034800001F00F040123A3409AB2D343038110BD7E
:1034900010B50446FE48844208D101210846FEF7D3
:1034A00000FD00210120FEF7FCFC9DE0B4F1804FFF
:1034B00008D101210846FEF7E3FC00210120FEF7B8
:1034C000DFFC91E0F348844208D101210220FEF79D
:1034D000D7FC00210220FEF7D3FC85E0EE488442B1
:1034E00008D101210420FEF7CBFC00210420FEF7C7
:1034F000C7FC79E0E948844208D101210820FEF7A1
:10350000BFFC00210820FEF7BBFC6DE0E4488442CC
:1035100008D101211020FEF7B3FC00211020FEF796
:10352000AFFC61E0DF48844208D101212020FEF792
:10353000A7FC00212020FEF7A3FC55E0DA488442D6
:1035400008D101210220FEF7ACFC00210220FEF789
:10355000A8FC49E0D548844209D101210804FEF7BE
:10356000A0FC00214FF48030FEF79BFC3CE0D048EB
:10357000844209D101214804FEF793FC00214FF455
:103580000030FEF78EFC2FE0CA48844209D10121A9
:103590008804FEF786FC00214FF48020FEF781FCB2
:1035A00022E0C548844208D101214020FEF768FC92
:1035B00000214020FEF764FC16E0C048844208D198
:1035C00001218020FEF75CFC00218020FEF758FCE2
:1035D0000AE0BB48844207D101218015FEF750FC68
:1035E0000021A015FEF74CFC10BD00220288A84B5C
:1035F00098420ED0AC4B98420BD0B0F1804F08D01F
:10360000A44B984205D0A44B984202D0A34B9842B9
:1036100004D14FF68F731A404B881A43A04B98423F
:1036200007D0A04B984204D04FF6FF431A400B89B5
:103630001A4302804B68C3620B880385944B9842FF
:1036400002D0994B984201D18B7A03860123838261
:1036500070474FF0FF3141600021018001814180BE
:10366000817270470185828270470A460021018875
:103670004FF68F73194011430180704741627047C4
:10368000C16270470146486A70470146088D70471D
:1036900021B1028842F00202028004E002884FF663
:1036A000FD731A400280704721B1028842F0040283
:1036B000028004E002884FF6FB731A4002807047D4
:1036C00021B1028842F08002028004E002884FF6B5
:1036D0007F731A400280704702884FF6F7731A40D2
:1036E000028002880A430280704702884FF6FF4337
:1036F0001A40028002880A430280704721B1028882
:1037000042F00102028004E002884FF6FE731A4084
:103710000280704770B5002400220023058C4FF60C
:10372000FE7635400584028C8388048B4FF68F75B6
:103730002C40B51E2C400D882C43751E2A408D89C7
:103740002A434D882A43524DA84202D0564DA842E2
:1037500013D14FF6F7752A40CD892A434FF6FB75F2
:103760002A408D882A434FF6FF652B404FF6FF55C0
:103770002B400D8A2B434D8A2B43838004838D6815
:103780004563028470BD70B5002400220023058CBF
:103790004FF6EF7635400584028C8388048B48F61B
:1037A000FF752C404FF6FF452C400D884FF6FF76F5
:1037B00006EA05252C434FF6DF752A408D8906EA77
:1037C00005152A434D8806EA05152A43304DA842BF
:1037D00002D0354DA8421DD14FF67F752A40CD89C4
:1037E0004FF6FF7606EA05152A434FF6BF752A40C5
:1037F0008D8806EA05152A434FF6FF352B404FF218
:10380000FF752B400D8A06EA85052B434D8A06EA93
:1038100085052B43838004838D688563028470BD96
:1038200070B5002400220023058C4FF6FF6635405A
:103830000584028C8388848B4FF68F752C404FF65D
:10384000FC752C400D882C434FF6FF552A408D897E
:103850004FF6FF7606EA05252A434D8806EA052538
:103860002A430B4DA84202D00F4DA84238D14FF247
:10387000FF752A40CD894FF6FF7606EA05252A43D3
:103880004FF6FF352A408D8806EA05252A4319E0C0
:10389000000001400004004000080040000C00400F
:1038A00000100040001400400004014000400140AE
:1038B000004401400048014000180040001C004046
:1038C000002000404EF6FF752B404DF6FF752B4053
:1038D0000D8A06EA05152B434D8A06EA05152B438A
:1038E000838084838D68C563028470BD70B50022B7
:1038F00000230024058C4EF6FF7635400584038CAA
:103900008488828B48F6FF752A404FF6FF452A408F
:103910000D884FF6FF7606EA05252A434DF6FF751A
:103920002B408D8906EA05352B434D8806EA05357F
:103930002B43FE4DA84202D0FD4DA84208D14BF6C4
:10394000FF752C400D8A4FF6FF7606EA85152C434D
:10395000848082838D680564038470BD00210180AA
:103960004180818081608181C18101824182704773
:1039700070B50346002000241846183001258D40FC
:10398000ACB21D8CA5431D8409B108290AD100EBF6
:10399000610005684FF68F76354005600568154370
:1039A00005600FE00D1FC5F34E052844056848F675
:1039B000FF763540056005684FF6FF7606EA022679
:1039C0003543056070BD4163704781637047C163D3
:1039D0007047016470470A460021018B4FF68F73D0
:1039E00019401143018370470A460021018B48F6B4
:1039F000FF7319404FF6FF7303EA02231943018353
:103A000070470A460021818B4FF68F73194011438E
:103A1000818370470A460021818B48F6FF73194065
:103A20004FF6FF7303EA02231943818370470A4666
:103A30000021018B4FF6F773194011430183704742
:103A40000A460021018B4FF2FF7319404FF6FF73B6
:103A500003EA02231943018370470A460021818B40
:103A60004FF6F77319401143818370470A460021CE
:103A7000818B4FF2FF7319404FF6FF7303EA022365
:103A80001943818370470A460021018B4FF6FB736F
:103A900019401143018370470A460021018B4FF6FC
:103AA000FF3319404FF6FF7303EA022319430183E2
:103AB00070470A460021818B4FF6FB731940114372
:103AC000818370470A460021818B4FF6FF331940EE
:103AD0004FF6FF7303EA02231943818370470A46B6
:103AE0000021018B4FF67F7319401143018370470A
:103AF0000A460021018BC1F30E014FF6FF7303EA62
:103B000002231943018370470A460021818B4FF637
:103B10007F7319401143818370470A460021818BCE
:103B2000C1F30E014FF6FF7303EA022319438183A9
:103B300070470A460021018C4FF6FD73194011436E
:103B4000018470470A460021018C4FF6F773194033
:103B50001143018470470A460021018C4FF6DF7340
:103B600019404FF6FF7303EA0213194301847047AB
:103B70000A460021018C4FF67F7319404FF6FF7300
:103B800003EA02131943018470470A460021018C9D
:103B90004FF6FF5319404FF6FF7303EA0223194310
:103BA000018470470A460021018C4FF2FF731940CF
:103BB0004FF6FF7303EA02231943018470470A4654
:103BC0000021018C4DF6FF7319404FF6FF7303EA95
:103BD000023319430184704730B5002301248C401F
:103BE000A3B2048C9C430484048C02FA01F5ADB2A8
:103BF0002C43048430BD30B5002304248C40A3B290
:103C0000048C9C430484048C02FA01F5ADB22C436D
:103C1000048430BD828B4FF2FF331A408283828B43
:103C20004FF6FF7303EA01231A4382837047F0B50E
:103C30000C461546002100220026078C4EF6FF7C1C
:103C400007EA0C070784818B028C4FF6FF7707EA9F
:103C5000043640F6FF4739404FF6FF7707EA05275D
:103C600039434FF6FF7707EA0337394345F6FF77C5
:103C70003A4046F480573A4381830284F0BD828BF8
:103C80004FF6F3731A408283828B0A438283704714
:103C9000F0B50C461546002100220026078C4FF691
:103CA000FF6C07EA0C070784818B028C4FF6FF77C5
:103CB00007EA04264FF60C7739404FF6FF7707EAFC
:103CC00003172F4339434FF2FF573A4046F48077AA
:103CD0003A4381830284F0BD028B4FF2FF331A40D6
:103CE0000283028B4FF6FF7303EA01231A43028318
:103CF0007047F0B50C461546002100220026078CBF
:103D00004FF6EF7C07EA0C070784018B028C4FF615
:103D1000FF7707EA041640F6FF4739404FF6FF7772
:103D200007EA033739434FF6FF7703E0000001400D
:103D30000004014007EA052739434FF65F773A4010
:103D400046F010073A4301830284F0BD028B4FF620
:103D5000F3731A400283028B0A4302837047F0B563
:103D60000C46154600210022068C4FF6FE773E4099
:103D70000684018B028C4FF60C7631407E1C06EADD
:103D800003162E4331434FF6F576324044F00106D8
:103D9000324301830284F0BD70B505460C4620888D
:103DA00050B92389A28861882846FFF7D8FFE188A7
:103DB0002846FFF7CBFF25E0208804280AD1238975
:103DC000A28861882846FFF794FFE1882846FFF71C
:103DD00083FF17E0208808280AD12389A2886188F8
:103DE0002846FFF755FFE1882846FFF748FF09E01E
:103DF0002389A28861882846FFF719FFE1882846B1
:103E0000FFF708FF70BD0021018041800121818002
:103E10000021C180018170472DE9F04105460C4623
:103E200000260127608808B9022600E00026A08845
:103E3000012801D1022700E001272088A0B92389A9
:103E4000A28861882846FFF78AFFE1882846FFF7A5
:103E50007DFF23893A4631462846FFF74AFFE1882D
:103E60002846FFF739FF13E02389A2886188284696
:103E7000FFF73FFFE1882846FFF72EFF23893A46E8
:103E800031462846FFF76BFFE1882846FFF75EFFC3
:103E9000BDE8F0810146486B70470146886B70476A
:103EA0000146C86B70470146086C70470A884B880A
:103EB0001A438B881A43CB881A430B891A434B89C0
:103EC0001A438B891A43A0F84420704700210180CF
:103ED00041808180C180018141818181704731B100
:103EE000B0F8442042F40042A0F8442005E0B0F8C5
:103EF0004420C2F30E02A0F84420704721B182880A
:103F000042F00402828004E082884FF6FB731A407C
:103F10008280704721B1828842F00102828004E0F1
:103F200082884FF6FE731A40828070471AB18389E7
:103F30000B43838102E083898B43838170478182B5
:103F4000704702460020138A0B400BB1012000E0AD
:103F500000207047CA430282704730B502460020F5
:103F600000230024158A05EA0103958905EA010466
:103F700013B10CB1012000E0002030BDCA43028221
:103F8000704741EA0203A0F8483070471AB18389AC
:103F90000B43838102E083898B438381704721B186
:103FA000828842F00802828004E082884FF6F7732C
:103FB0001A408280704701894FF6F87211400181E2
:103FC00070470A46002101894FF68F73194011434B
:103FD0000181704730B504460D4629462046FFF75B
:103FE000F0FF208940F00700208130BD2DE9F0412D
:103FF00004460D4616461F46602D06D13B4601225B
:1040000031462046FFF775FE05E03B46012231466A
:104010002046FFF7A4FE29462046FFF7D2FF20895D
:1040200040F007002081BDE8F08130B50C4600214A
:104030000189C9B24FF6FF7505EA032515432543EB
:104040002943018130BD2DE9F04105460E46174652
:104050009846002443463A4631462846FFF7E5FF96
:104060002C894FF6F870044044F007044FF68F7027
:10407000044044F070042C81BDE8F081F0B50446A2
:104080000D4616461F463B46324629462046FFF758
:10409000CCFF208940F480402081F0BD82884FF61B
:1040A0008F731A40828082880A4382807047028917
:1040B0004FF6F8731A40028102890A430281704761
:1040C00002894FF67F731A40028102890A430281F6
:1040D0007047F0B50C4615461E460021002200230D
:1040E0000189028B038C4FF6F877394021434FF654
:1040F000FC473A4040F201173A434FF6DD773B4028
:104100004FF6FF7707EA06172F433B4301810283EF
:104110000384F0BD21B1828842F08002828004E0F5
:1041200082884FF67F731A4082807047A0F8501043
:104130007047000010B50121C802FDF7B2FE002152
:104140004FF40060FDF7ADFE10BD00216C4A116810
:1041500047F6FF629143027D83681A4343681A431E
:10416000C3681A4303681A4303691A431143644A34
:104170001160704700210175016041608160C1607C
:10418000016170475F49086070475D49091F086019
:1041900070475B48001F006800F003007047002173
:1041A000574B1B1D02681A601A1D11686FF30A0134
:1041B000D0E901231A43C3681A4303691A43114320
:1041C0004F4A0832116070470021016041608160F0
:1041D000C160016170474A480C300068C0B2704746
:1041E00008B5014600200090454810300844009072
:1041F0000098006808BD0021414B203302681A6016
:104200001B1D42681A601A1D116821F0F701D0E9E0
:1042100002231A4303691A4343691A431143384A74
:104220002832116070474FF0FF310160002141607A
:104230008160C16001614161704731482C30006884
:1042400070472F487C30006870472D497C310860EA
:1042500070472B484430006870472B49086070470E
:104260002949091D086070472749083108607047CF
:1042700025490C310860704724490860704723497C
:10428000091D0860704701218143204A08321160EE
:1042900070471E490C31086070471B49143908608B
:1042A000704739B1164A383212680243144B38331A
:1042B0001A6006E0124A383212688243104B3833D3
:1042C0001A607047014600200D4A303212680A40D9
:1042D0000AB1012000E0002070470949343108602C
:1042E000704701460020064A303212680A400AB17F
:1042F000012000E000207047014934310860704718
:10430000042C0140A0802542A0852542AC81254295
:10431000016821F0010101600021016041608160BC
:10432000C160016121214161DB49884204D13D2105
:10433000D94A103A91608CE0D7491831884205D1AA
:104340004FF47461D44A103A916082E0D24930311E
:10435000884205D14FF47411CF4A103A916078E049
:10436000CD494831884205D14FF07461CA4A103AAC
:1043700091606EE0C8496031884204D1C749C64A9D
:10438000103AD16065E0C4497831884204D1C4490B
:10439000C14A103AD1605CE0BF499031884204D1F3
:1043A000C049BD4A103AD16053E0BB49A8318842A8
:1043B00005D14FF03D51B84A103AD16049E0BA49B1
:1043C000884204D13D21B84A083A116041E0B6491B
:1043D0001831884205D14FF47461B34A083A11602C
:1043E00037E0B1493031884205D14FF47411AE4AFB
:1043F000083A11602DE0AC494831884205D14FF0B0
:104400007461A94A083A116023E0A74960318842E3
:1044100004D1A249A44A121F11601AE0A2497831BE
:10442000884204D19E49A04A121F116011E09E49A2
:104430009031884204D19B499B4A121F116008E0C9
:104440009949A831884204D14FF03D51964A121F34
:104450001160704710B500220268944B1A40CC6876
:104460000B6823434C6923438C692343CC69234362
:104470000C6A23434C6A23438C6A23434C6B2343CB
:104480008C6B23431A430260426922F00702D1E990
:104490000B3423431A4342610B6943604B688360CA
:1044A0008B68C36010BD0021016041608160C16004
:1044B000016141618161C161016241628162C162E8
:1044C000016341638163704721B1026842F00102D8
:1044D000026003E0026822F001020260704721B12D
:1044E000026842F40042026003E0026822F40042E3
:1044F0000260704721B1026842F02002026003E0CE
:10450000026822F020020260704741607047014655
:10451000486880B2704722B1036843F40023036007
:1045200003E0036823F4002303600161704721B1B5
:10453000026842F48022026003E0026822F48022D2
:10454000026070470AB1016100E0C1607047014636
:1045500000200A6802F400220AB1012000E00020D5
:104560007047014600200A6802F001020AB10120EA
:1045700000E000207047014600204A6902F0380040
:10458000704730B503460A4600200024464DAB4232
:1045900002D24149103901E04349103902F0005577
:1045A0000DB14C6800E00C68414D2C4004EA020556
:1045B0000DB1012000E0002030BD02463A4B9A4286
:1045C00002D23548103801E03748103801F0005366
:1045D0001BB1374B0B40C36002E0354B0B4083608F
:1045E000704710B501F080034BB122B1436943F02D
:1045F0008003436103E0436923F080034361802922
:104600000BD02AB1036801F01E042343036004E0C9
:10461000036801F01E04A343036010BD70B5024699
:10462000002000240025204EB24202D21A4B103B3B
:1046300001E01D4B103B1F4E0E4036B11E2606EA10
:10464000D124166806EA040502E0566906F08005E2
:1046500001F000560EB15C6800E01C68144E344056
:1046600004EA010616B10DB1012000E0002070BD82
:1046700002460D4B9A4202D20748103801E00A4820
:10468000103801F000531BB1094B0B40C36002E02E
:10469000074B0B4083607047106002403D000020D4
:1046A000400F002000003D20106402403F801CF0BD
:1046B0007D0F7D0F3C0F3C0F10B504466FF00400DA
:1046C000FCF7FEFFE11704EB5171C1F3C701394A52
:1046D00011701046007800EB4001C1EBC0104FF69E
:1046E000FF7101EAC0003449088010BD0146314A1B
:1046F00012784A434FF0E0235A6100229A611A4629
:10470000126942F001021A6100BF4FF0E022106905
:1047100000F001021AB100F48032002AF5D04FF007
:10472000E022126922F001024FF0E0231A61002218
:104730009A6170470146204A12884A434FF0E023AD
:104740005A6100229A611A46126942F001021A6106
:1047500000BF4FF0E022106900F001021AB100F42E
:104760008032002AF5D04FF0E022126922F00102D7
:104770004FF0E0231A6100229A61704770B5044639
:104780004FF4077094FBF0F0C6B24FF4077094FB3F
:10479000F0F100FB114085B205E04FF40770FFF720
:1047A000C9FF701EC6B2002EF7D115B12846FFF71B
:1047B000C1FF70BD2C0000202E000020014600BF6C
:1047C000704700BF4C4A128802F04002002AF9D01C
:1047D000C2B2494B9A80704710B588B00446012197
:1047E0000846FDF7AFFA01211020FDF705FB07226F
:1047F00009214248FDF793F807220A213F48FDF7B7
:104800008EF84FF4C060069002208DF81C008DF8E1
:104810001D0000208DF81E0001208DF81F0006A944
:104820003648FCF7F1FF02940020ADF80C00ADF81B
:104830000E00ADF81000ADF814000C20ADF8120019
:1048400002A92D48FDF739FC01212B48FDF7BDFCDD
:10485000012240F225512848FDF76DFD25208DF8F5
:10486000040003208DF805008DF8060001208DF866
:10487000070001A8FCF7D7FE08B010BD10B540F244
:1048800025511D48FDF792FD10B31B48FDF7CCFCE8
:10489000C4B21B48008800F40040C8B9184800881A
:1048A00000F4804060B10A2C03D000201449088035
:1048B00020E01348008840F400401149088019E0C6
:1048C0000D2C06D10E48008840F480400C49088029
:1048D00010E00B480088C0F30D000A490C5408484A
:1048E0000088401C0649088008460088C72801DD6A
:1048F0000020088010BD00000010014000000240B0
:1049000034000020840300201CB501212020FDF785
:1049100019FA01208DF8040000208DF806004FF4EC
:104920008070009002208DF8070003208DF80500AC
:1049300069460448FCF768FF4FF480710148FCF7B2
:10494000E1FF1CBD001402401CB501212020FDF731
:10495000F9F901208DF8040000208DF806004FF4CD
:10496000C060009001208DF8070003208DF805003D
:1049700069460748FCF748FF4FF400710448FCF70C
:10498000BFFF4FF480610248FCF7BAFF1CBD000076
:10499000001402401FB501211120FDF7D3F90020BA
:1049A0008DF804008DF806001C20009001208DF881
:1049B000070003208DF8050069460A48FCF724FF2C
:1049C00000208DF80C008DF80E00012002900220CE
:1049D0008DF80F0003208DF80D0002A90248FCF7A6
:1049E00013FF1FBD00100240000002400EB5012160
:1049F0008803FDF701FAFFF7CDFF00210846FDF718
:104A0000B8FD012001908DF80A0000208DF8080003
:104A100008208DF8090001A8FDF720FD06208DF87B
:104A2000000001208DF803006846FCF7FCFD0EBD78
:104A300010B56248006820F44020604908600846CC
:104A4000006840F48020086000205D490860142060
:104A5000FFF794FE01205B49C1F8A4021E20FFF776
:104A600045FE10BD10B500245448006820F44020D5
:104A70005249086008460068086004E0601CC4B23F
:104A80000120FFF733FE4E488038006808B1642CDF
:104A9000F4DB642C01DB012010BD002404E0601C69
:104AA000C4B20120FFF722FE45488038006808B9EB
:104AB000642CF4DB642C01DB0120EDE70020EBE744
:104AC00010B5002404E0601CC4B20120FFF70EFE04
:104AD0003B488038006808B1642CF4DB002404E013
:104AE000601CC4B20120FFF701FE35488038006821
:104AF00008B9642CF4DB2820FFF7F8FD3048803833
:104B0000006808B1012010BD0020FCE770B500244A
:104B1000002506E06006040EFFF7D2FF0443681C80
:104B2000C5B2082DF6DB204670BD7CB505460E46A5
:104B3000FFF77EFFFFF796FFF8B9002405E0FFF7C7
:104B4000E5FF0DF80400601CC4B2052CF7DB9DF8EE
:104B500000009DF8011008449DF8021008449DF8DB
:104B6000031008449DF80410884208D19DF8000005
:104B700030709DF80200287001E001207CBD00200B
:104B8000FCE71CB501214020FDF7DCF84FF4007074
:104B9000009001208DF8040000208DF8060002200E
:104BA0008DF8050001208DF8070069460348FCF7E1
:104BB0002BFEFFF73DFFFFF755FF1CBD001802401D
:104BC000A40243420000434201B5BDF8000000903A
:104BD000BDF80000F849088008BD01B5BDF8000027
:104BE0000090BDF80000F449891C088008BD08B594
:104BF000F148801C00880090BDF8000008BDEE4A16
:104C000010804FF0D842A2F88010704710B50446CB
:104C10002046FFF7D9FF0520FFF768FDFFF7E7FF04
:104C200010BDE6480089E44908807047E249891CC4
:104C30000880704730B5014601F01F04C1F34513E9
:104C4000CA0AE50205EB43151544A8B230BD00BF02
:104C50000100A0F10102D0B2FAD1704730B504468C
:104C60000D46D648808849F24131884205D0D34864
:104C7000808845F21031884214D1D0494889FFF725
:104C8000A3FF2012FFF7A9FFE0B2FFF7A6FFCB4971
:104C90008889FFF799FF2812FFF79FFFE8B2FFF717
:104CA0009CFFABE0C548808846F6040188421DD1D0
:104CB000C2488079012804D1C0480088401E001BEA
:104CC00084B2BE494889FFF77FFF2012FFF785FFB6
:104CD000E0B2FFF782FFB9498889FFF775FF281214
:104CE000FFF77BFFE8B2FFF778FF87E0B3488088E3
:104CF00041F66311884247D1B0488079A8B9AF48DE
:104D00000088401E001B84B2AC494889FFF75CFF55
:104D10000020FFF762FF0020FFF75FFF2012FFF780
:104D20005CFFE0B2FFF759FF16E0A4494889FFF79E
:104D30004BFF2012FFF751FFE0B2FFF74EFF9F49F4
:104D40000988491EC1F30F20FFF747FF9B490978E7
:104D5000491EC8B2FFF741FF98498889FFF734FF21
:104D60002812FFF73AFFE8B2FFF737FF9349498867
:104D7000491EC1F30F20FFF730FF90498978491E83
:104D8000C8B2FFF72AFF39E08C48808845F21051FD
:104D9000884220D189494889FFF716FF2012FFF782
:104DA0001CFF86494989491C88B2FFF70DFFE0B214
:104DB000FFF713FF81498889FFF706FF2812FFF7E5
:104DC0000CFF7E498989491C88B2FFF7FDFEE8B2D5
:104DD000FFF703FF12E079488079012804D1774872
:104DE0000088401E001B84B2744948892146FFF7A1
:104DF00006FF724988892946FFF701FF30BD2DE97A
:104E0000F04105460E4600240027A0466B48008866
:104E1000A84203DD69484088B04202DC0020BDE8BA
:104E2000F08131462846FFF719FF6448808849F22F
:104E30004131884211D06148808846F60401884299
:104E40000BD05E48808845F21031884205D05B481F
:104E5000808841F66311884203D12E20FFF7B4FE0B
:104E60000DE05648808845F21051884204D14FF435
:104E70003850FFF7A9FE02E02220FFF7A5FE4F48B9
:104E8000808849F22031884202D10220FFF7DFFEFC
:104E9000FFF7ADFE04464948808841F66311884219
:104EA00001D12046BBE70220FFF7D1FEFFF79FFEAE
:104EB00004464248808849F2413188420BD03F483D
:104EC000808845F21031884205D03C48808845F200
:104ED000105188420AD10220FFF7B9FEFFF787FE82
:104EE0008046E7B24FF6FF7000EA07273348808814
:104EF00049F22531884216D03048808844F2355135
:104F0000884210D02D488088091F88420BD02B483A
:104F100080884BF20551884205D0284880884CF2A1
:104F20000551884201D1204679E72448808849F21A
:104F3000413188420BD02148808845F210318842A7
:104F400005D01E48808845F21051884207D1E012F2
:104F5000C002B91240EA411040EAE8205FE720466B
:104F6000FFF768FE5BE700B51448808849F24131DD
:104F7000884211D01148808846F6040188420BD03F
:104F80000E48808845F21031884205D00B48808851
:104F900041F66311884203D12920FFF715FE14E082
:104FA0000648808845F21051884209D14FF42450B8
:104FB000FFF70AFE09E000007E00006C4C040020B0
:104FC00040F273110720FFF71AFE00BD00B5FD483F
:104FD000808849F24131884211D0FA48808846F6EB
:104FE000040188420BD0F748808845F2103188428E
:104FF00005D0F448808841F66311884203D1282007
:10500000FFF7E2FD0EE0EF48808845F2105188423C
:1050100004D14FF42050FFF7D7FD03E00021072013
:10502000FFF7EDFD00BDF0B5054600240027E5487B
:10503000807901280BD1E348808846F60401884234
:1050400005D0E048808841F66311884208D1DD48E8
:105050008079F0B9DB48808841F66311884218D125
:10506000082D15D2DFE805F00406080A0C0E101210
:1050700006250DE007250BE0042509E0052507E0DE
:10508000012505E0002503E0032501E0022500BF1E
:1050900000BFCC48808849F24131884217D0C948C6
:1050A000808846F60401884211D0C648808845F2BF
:1050B000103188420BD0C348808845F21051884295
:1050C00005D0C048808841F6631188427ED1082D02
:1050D0001CD2DFE805F00406090C0F12151800BFFA
:1050E00014E044F0800411E044F040040EE044F089
:1050F000C0040BE044F0200408E044F0600405E044
:1051000044F0A00402E044F0E00400BF00BFAD485A
:10511000808845F21051884202D14FF4585700E080
:105120003627A848808845F2103188420DD0A5481E
:10513000808845F21051884207D0A248808841F605
:105140006311884201D044F008049E48808846F6E6
:105150000401884201D144F0020421463846FFF799
:105160004EFD9848808841F6631188421DD004F0B6
:10517000200068B19348008892494988884214DA2F
:105180009048068840888F490880084646800CE091
:105190008C4800888B494988884206DD8948068802
:1051A000408888490880084646808648808845F2BD
:1051B0001051884254D183494889FFF705FD0020EA
:1051C000FFF70BFD7F494989491C00E077E088B271
:1051D000FFF7FAFC0020FFF700FD7A494989891C96
:1051E00088B2FFF7F1FC77490988491EC1F30F2007
:1051F000FFF7F3FC73494989C91C88B2FFF7E4FC47
:1052000070490978491EC8B2FFF7E7FC6D498889E3
:10521000FFF7DAFC0020FFF7E0FC6A498989491CA6
:1052200088B2FFF7D1FC0020FFF7D7FC65498989D8
:10523000891C88B2FFF7C8FC62494988491EC1F33E
:105240000F20FFF7CAFC5F498989C91C88B2FFF7A4
:10525000BBFC5C498978491EC8B2FFF7BEFC55E02B
:1052600058494889FFF7B0FC0020FFF7B6FC002042
:10527000FFF7B3FC53490988491EC1F30F20FFF71C
:10528000ACFC50490978491EC8B2FFF7A6FC4D494D
:105290008889FFF799FC0020FFF79FFC0020FFF7AB
:1052A0009CFC48494988491EC1F30F20FFF795FC33
:1052B00044498978491EC8B2FFF78FFC26E0082DC3
:1052C0001CD2DFE805F004070A0D0F12151844F090
:1052D000300413E044F0100410E044F020040DE02A
:1052E00000BF0BE044F0380408E044F0280405E077
:1052F00044F0180402E044F0080400BF00BF032794
:1053000044F4805421463846FFF779FCF0BD30B5AF
:1053100004460D4629462046FFF7A0FCFFF781FC16
:10532000294800882949088030BD70B504460D46DB
:1053300016462448808849F24131884205D02148E8
:10534000808845F21031884214D11E494889FFF700
:105350003BFC2012FFF741FCE0B2FFF73EFC19498D
:105360008889FFF731FC2812FFF737FCE8B2FFF716
:1053700034FC93E01348808845F21051884227D1CD
:1053800010494889FFF720FC2012FFF726FC0D4941
:105390004989491C88B2FFF717FCE0B2FFF71DFCF2
:1053A00008498889FFF710FC2812FFF716FC054909
:1053B0008989491C88B2FFF707FCE8B2FFF70DFCAA
:1053C0006CE000004C040020360000208000006CDF
:1053D000FE48808841F66311884228D1FB488079D5
:1053E00020B9FA480088401E001B84B2F74948895A
:1053F000FFF7EAFB2012FFF7F0FBE0B2FFF7EDFB4F
:105400002012FFF7EAFBE0B2FFF7E7FBEF498889DC
:10541000FFF7DAFB2812FFF7E0FBE8B2FFF7DDFB4E
:105420002812FFF7DAFBE8B2FFF7D7FB36E0E748D0
:10543000808846F6040188421DD1E448807901281D
:1054400004D1E2480088401E001B84B2DF4948892D
:10545000FFF7BAFB2012FFF7C0FBE0B2FFF7BDFB7E
:10546000DA498889FFF7B0FB2812FFF7B6FBE8B2EC
:10547000FFF7B3FB12E0D5488079012804D1D34867
:105480000088401E001B84B2D04948892146FFF79E
:10549000B6FBCE4988892946FFF7B1FBCB48008986
:1054A000CB4908804FF0D840A0F8806070BD70B53F
:1054B0002DED048B0446BE20FFF786FB0520FFF789
:1054C0008CFB20460EF0A7FA41EC190B9FEDC10BA7
:1054D00053EC102B0EF0B2FA41EC180B0EF06EFAF2
:1054E00085B22846FFF779FB0120FFF776FBFF2006
:1054F000FFF773FB0020FFF770FB0020FFF76DFB49
:10550000BDEC048B70BD10B50446002C66D1AF49CC
:105510008871F02008804FF4A07048800846808889
:1055200049F2413188420BD0A848808846F60401F0
:10553000884205D0A548808845F2103188421AD1AA
:105540002C20A24908812A2048812B2088810846E6
:10555000808846F60401884205D09C48808845F240
:105560001031884206D14FF4A070984908804FF45A
:10557000F0704880A1E09548808845F2105188423B
:1055800010D14FF43050914908814FF42850488190
:105590004FF42C5088814FF4F07008804FF448701D
:1055A00048808AE08948808841F6631188420DD19D
:1055B0002C20864908812B2048812A2088814FF49D
:1055C000F07008804FF44870488076E022207F49D0
:1055D000088120204881212088816EE001207B49BC
:1055E00088714FF4A0700880F020488008468088B9
:1055F00049F24131884205D07448808845F2103123
:10560000884207D12C20714908812A2048812B200B
:1056100088813FE06D48808846F60401884207D1C2
:105620002C206A4908812B2048812A20888131E07A
:105630006648808845F21051884210D14FF43050AE
:10564000624908814FF4285048814FF42C508881DA
:105650004FF4487008804FF4F07048801AE05B48BF
:10566000808841F6631188420DD12C20574908816A
:105670002A2048812B2088814FF4487008804FF4FD
:10568000F070488006E0222050490881212048819E
:10569000202088814D48808846F60401884205D044
:1056A0004A48808845F21031884206D14FF4F070A4
:1056B000464908804FF4A07048800020FFF7B3FCF3
:1056C00010BD2DE9F04F86B004460D469046994630
:1056D00004EB0800401E86B205EB0900401E87B2AD
:1056E0003A48808849F24131884215D0374880884D
:1056F00045F2103188420FD03448808846F60401C4
:10570000884209D031488079012826D12F488088E5
:1057100041F66311884220D12C494889FFF754FA99
:105720002012FFF75AFAE0B2FFF757FA3012FFF7EC
:1057300054FAF0B2FFF751FA24498889FFF744FA86
:105740002812FFF74AFAE8B2FFF747FA3812FFF7D4
:1057500044FAF8B2FFF741FAC1E01C48808841F6EC
:10576000631188423DD119480088A0EB0800001B56
:1057700084B205EB0900401E1FFA80F913494889DD
:10578000FFF722FA2012FFF728FAE0B2FFF725FA16
:1057900004EB0801491EC1F30F20FFF71EFA04EBCA
:1057A0000801491EC8B2FFF718FA08498889FFF7AF
:1057B0000BFA2812FFF711FAE8B2FFF70EFA4FEAD8
:1057C0002920FFF70AFA09F0FF0007E04C04002047
:1057D0007E00006C6666666666660440FFF7FDF94B
:1057E0007DE0FE48808845F21051884244D1FB4953
:1057F0004889FFF7E9F92012FFF7EFF9F7494989DE
:10580000491C88B2FFF7E0F9E0B2FFF7E6F9F34987
:105810004989891C88B2FFF7D7F93012FFF7DDF903
:10582000EE494989C91C88B2FFF7CEF9F0B2FFF7FB
:10583000D4F9EA498889FFF7C7F92812FFF7CDF9AB
:10584000E6498989491C88B2FFF7BEF9E8B2FFF73B
:10585000C4F9E2498989891C88B2FFF7B5F9381281
:10586000FFF7BBF9DD498989C91C88B2FFF7ACF99C
:10587000F8B2FFF7B2F932E0D848807901280ED1AA
:10588000AA46BB46D5480088801B401E80B20190C6
:10589000D2480088001B401E80B2009003E0A24660
:1058A000B346019500975020059051200490522056
:1058B00003905320029051460598FFF7A0F95946EE
:1058C0000498FFF79CF901990398FFF798F900995C
:1058D0000298FFF794F929462046FFF7BFF906B072
:1058E000BDE8F08F70B504460026BC4805884088A6
:1058F0004543BA48808846F60401884216D1B74825
:105900008079012812D10020B44988712A20488169
:105910002B20888100210846FFF7A0F90120AF491C
:1059200088712B2048812A20888103E000210846C5
:10593000FFF794F9FFF775F9002602E0A848048004
:10594000761CAE42FAD370BD00B5A1B00020209005
:1059500001217A20FCF7F6F901210846FCF72AFA22
:105960004FF400401E9001208DF87C0000208DF83F
:105970007E0002208DF87D0001208DF87F001EA999
:105980009848FBF741FF4CF233701E9002208DF8CF
:105990007C0000208DF87E0003208DF87D00012022
:1059A0008DF87F001EA99048FBF72EFF4FF6807000
:1059B0001E9002208DF87C0000208DF87E000320D0
:1059C0008DF87D0001208DF87F001EA98748FBF728
:1059D0001BFF4FF480501E9002208DF87C000020A9
:1059E0008DF87E0003208DF87D0001208DF87F006A
:1059F0001EA97F48FBF708FF4FF480501E9002203D
:105A00008DF87C0000208DF87E0003208DF87D004D
:105A100001208DF87F001EA97648FBF7F5FE0C22C9
:105A200000217148FBF77BFF0C2201216E48FBF738
:105A300076FF0C2204216C48FBF771FF0C22052134
:105A40006948FBF76CFF0C2208216748FBF767FFEA
:105A50000C2209216448FBF762FF0C220A216248EC
:105A6000FBF75DFF0C220E215F48FBF758FF0C226D
:105A70000F215D48FBF753FF0C2207215B48FBF722
:105A80004EFF0C2208215948FBF749FF0C2209213F
:105A90005648FBF744FF0C220A215448FBF73FFF0E
:105AA0000C220B215148FBF73AFF0C2211464F48BC
:105AB000FBF735FF0C220D214C48FBF730FF0C2281
:105AC0000E214A48FBF72BFF0C220F214748FBF71A
:105AD00026FF0C2211464648FBF721FF0C221146F7
